{
  "contractName": "Election",
  "abi": [
    {
      "constant": true,
      "inputs": [],
      "name": "candidatesCount",
      "outputs": [
        {
          "name": "",
          "type": "uint256"
        }
      ],
      "payable": false,
      "stateMutability": "view",
      "type": "function"
    },
    {
      "constant": true,
      "inputs": [
        {
          "name": "",
          "type": "uint256"
        }
      ],
      "name": "candidates",
      "outputs": [
        {
          "name": "id",
          "type": "uint256"
        },
        {
          "name": "name",
          "type": "string"
        },
        {
          "name": "voteCount",
          "type": "uint256"
        }
      ],
      "payable": false,
      "stateMutability": "view",
      "type": "function"
    },
    {
      "constant": true,
      "inputs": [
        {
          "name": "",
          "type": "address"
        }
      ],
      "name": "voters",
      "outputs": [
        {
          "name": "",
          "type": "bool"
        }
      ],
      "payable": false,
      "stateMutability": "view",
      "type": "function"
    },
    {
      "inputs": [],
      "payable": false,
      "stateMutability": "nonpayable",
      "type": "constructor"
    },
    {
      "constant": false,
      "inputs": [
        {
          "name": "_candidateId",
          "type": "uint256"
        }
      ],
      "name": "vote",
      "outputs": [],
      "payable": false,
      "stateMutability": "nonpayable",
      "type": "function"
    }
  ],
  "bytecode": "0x608060405234801561001057600080fd5b5061005e6040805190810160405280600b81526020017f43616e64696461746520310000000000000000000000000000000000000000008152506100b0640100000000026401000000009004565b6100ab6040805190810160405280600b81526020017f43616e64696461746520320000000000000000000000000000000000000000008152506100b0640100000000026401000000009004565b6101d1565b60026000815480929190600101919050555060606040519081016040528060025481526020018281526020016000815250600080600254815260200190815260200160002060008201518160000155602082015181600101908051906020019061011b92919061012c565b506040820151816002015590505050565b828054600181600116156101000203166002900490600052602060002090601f016020900481019282601f1061016d57805160ff191683800117855561019b565b8280016001018555821561019b579182015b8281111561019a57825182559160200191906001019061017f565b5b5090506101a891906101ac565b5090565b6101ce91905b808211156101ca5760008160009055506001016101b2565b5090565b90565b6103d7806101e06000396000f300608060405260043610610062576000357c0100000000000000000000000000000000000000000000000000000000900463ffffffff1680630121b93f146100675780632d35a8a2146100945780633477ee2e146100bf578063a3ec138d14610173575b600080fd5b34801561007357600080fd5b50610092600480360381019080803590602001909291905050506101ce565b005b3480156100a057600080fd5b506100a96102c3565b6040518082815260200191505060405180910390f35b3480156100cb57600080fd5b506100ea600480360381019080803590602001909291905050506102c9565b6040518084815260200180602001838152602001828103825284818151815260200191508051906020019080838360005b8381101561013657808201518184015260208101905061011b565b50505050905090810190601f1680156101635780820380516001836020036101000a031916815260200191505b5094505050505060405180910390f35b34801561017f57600080fd5b506101b4600480360381019080803573ffffffffffffffffffffffffffffffffffffffff16906020019092919050505061038b565b604051808215151515815260200191505060405180910390f35b600160003373ffffffffffffffffffffffffffffffffffffffff1673ffffffffffffffffffffffffffffffffffffffff16815260200190815260200160002060009054906101000a900460ff1615151561022757600080fd5b60008111801561023957506002548111155b151561024457600080fd5b60018060003373ffffffffffffffffffffffffffffffffffffffff1673ffffffffffffffffffffffffffffffffffffffff16815260200190815260200160002060006101000a81548160ff0219169083151502179055506000808281526020019081526020016000206002016000815480929190600101919050555050565b60025481565b6000602052806000526040600020600091509050806000015490806001018054600181600116156101000203166002900480601f01602080910402602001604051908101604052809291908181526020018280546001816001161561010002031660029004801561037b5780601f106103505761010080835404028352916020019161037b565b820191906000526020600020905b81548152906001019060200180831161035e57829003601f168201915b5050505050908060020154905083565b60016020528060005260406000206000915054906101000a900460ff16815600a165627a7a72305820407bcbe6852e34d51c6bd6b72444aafc72ea568567259b011d029b21077d135b0029",
  "source": "pragma solidity ^0.4.0;\n\ncontract Election {\n\t/*\n\t \tVariables\n\t*/\n\tstruct Candidate {\n\t\tuint id;\n\t\tstring name;\n\t\tuint voteCount;\n\t}\n\tmapping(uint => Candidate) public candidates; // Store Candidates\n\tmapping(address => bool) public voters; // Store accounts that have voted\n\tuint public candidatesCount;\n\n\t/*\n\t\tConstructor\n\t*/\n\tconstructor() public {\n\t\taddCandidate(\"Candidate 1\");\n\t\taddCandidate(\"Candidate 2\");\n\t}\n\n\t/*\n\t\tFunctions\n\t*/\n\tfunction addCandidate(string _name) private {\n\t\tcandidatesCount++;\n\t\tcandidates[candidatesCount] = Candidate({\n\t\t\t\tid: candidatesCount,\n\t\t\t\tname: _name,\n\t\t\t\tvoteCount: 0\n\t\t\t});\n\t}\n\t\n\tfunction vote(uint _candidateId) public {\n\t\trequire(!voters[msg.sender]); // check that address has not voted\n\t\trequire(_candidateId > 0 && _candidateId <= candidatesCount); // check that the id cannot be 0, and must be less than candidatesCount\n\n\t\tvoters[msg.sender] = true; // Record voter has voted\n\n\t\tcandidates[_candidateId].voteCount++; // Update candidates' vote count\n\t}\n}\n",
  "sourcePath": "/home/xinnyliuu/Desktop/consensy_academy/voting/contracts/Election.sol",
  "compiler": {
    "name": "solc",
    "version": "0.4.24+commit.e67f0147.Emscripten.clang"
  },
  "schemaVersion": "2.0.1",
  "updatedAt": "2018-08-06T22:07:32.974Z"
}